:100000000C9463000C948B000C948B000C948B006C
:100010000C948B000C948B000C948B000C94530567
:100020000C948B000C948B000C948B000C948B0024
:100030000C948B000C948B000C948B000C948B0014
:100040000C9449030C948B000C94AC020C94860223
:100050000C948B000C948B000C948B000C948B00F4
:100060000C948B000C948B000000000024002700EF
:100070002A000000000023002600290000000008DC
:10008000000201000003040700000000000000005F
:10009000010204081020408001020408102001021F
:1000A0000408102000000000250028002B00040494
:1000B0000404040404040202020202020303030310
:1000C00003030200C50A11241FBECFEFD8E0DEBF34
:1000D000CDBF12E0A0E0B1E0E6E4F9E102C0059096
:1000E0000D92A232B107D9F723E0A2E2B2E001C03B
:1000F0001D92A938B207E1F710E0C3E6D0E004C0D2
:100100002197FE010E94960CC236D107C9F70E94C2
:10011000D5050C94A10C0C940000089580E090E0AB
:100120000895FC01538D448D252F30E0842F90E0FD
:10013000821B930B541710F0CF96089501970895E2
:10014000FC01918D828D981761F0828DDF01A80FDF
:10015000B11D5D968C91928D9F5F9F73928F90E001
:1001600008958FEF9FEF0895FC01918D828D981770
:1001700031F0828DE80FF11D858D90E008958FEFAD
:100180009FEF0895FC01918D228D892F90E0805C76
:100190009F4F821B91098F739927089583E892E0FE
:1001A0000E94C20021E0892B09F420E0822F0895EB
:1001B000FC01848DDF01A80FB11DA35ABF4F2C9104
:1001C000848D90E001968F739927848FA689B789D3
:1001D0002C93A089B1898C91837080648C93938DCA
:1001E000848D981306C00288F389E02D80818F7D6D
:1001F00080830895EF92FF920F931F93CF93DF9325
:10020000EC0181E0888F9B8D8C8D981305C0E88967
:10021000F989808185FD26C0F62E0B8D10E00F5FD9
:100220001F4F0F731127E02E8C8DE8120CC00FB6F4
:1002300007FCFACFE889F989808185FFF5CFCE01E7
:100240000E94D800F1CF8B8DFE01E80FF11DE35A1B
:10025000FF4FF0829FB7F8940B8FEA89FB8980816A
:1002600080620AC09FB7F894EE89FF896083E889AD
:10027000F98980818370806480839FBF81E090E0F2
:10028000DF91CF911F910F91FF90EF900895CF9341
:10029000DF93EC01888D8823C9F0EA89FB8980818E
:1002A00085FD05C0A889B9898C9186FD0FC00FB660
:1002B00007FCF5CF808185FFF2CFA889B9898C91A1
:1002C00085FFEDCFCE010E94D800E7CFDF91CF911F
:1002D000089580E090E0892B29F00E94CE008111E2
:1002E0000C9400000895833081F028F4813099F057
:1002F0008230A1F008958730A9F08830B9F08430B9
:10030000D1F4809180008F7D03C0809180008F7731
:1003100080938000089584B58F7702C084B58F7D67
:1003200084BD08958091B0008F7703C08091B000A4
:100330008F7D8093B0000895CF93DF93282F30E016
:10034000F901E458FF4F8491F901E057FF4FD49130
:10035000F901E255FF4FC491CC2391F081110E9425
:100360007301EC2FF0E0EE0FFF1FEE58FF4FA59149
:10037000B491EC91ED2381E090E021F480E002C0A3
:1003800080E090E0DF91CF9108953FB7F89480919D
:10039000230290912402A0912502B091260226B555
:1003A000A89B05C02F3F19F00196A11DB11D3FBFAD
:1003B000BA2FA92F982F8827820F911DA11DB11D3B
:1003C000BC01CD0142E0660F771F881F991F4A9537
:1003D000D1F708958F929F92AF92BF92CF92DF9202
:1003E000EF92FF926B017C010E94C5014B015C0101
:1003F000C114D104E104F104F1F00E94C501DC0153
:10040000CB0188199909AA09BB09883E9340A10527
:10041000B10570F321E0C21AD108E108F10888EEB5
:10042000880E83E0981EA11CB11CC114D104E10404
:10043000F10419F7DDCFFF90EF90DF90CF90BF90E0
:10044000AF909F908F90089520E332E091E040E0DC
:1004500050E0F901E40FF51F81E090834F5F5F4F9B
:1004600048305105B1F7285F3F4F42E0203534074F
:1004700071F722E030E030932E0220932D0280931A
:100480006A0280936B0280936C0223E030E0309329
:1004900029022093280226E030E030932B0220939B
:1004A0002A02809363028CEB92E090930301809385
:1004B000020110927902089580917902811125C07C
:1004C00089E00E949C01019729F088E00E949C012C
:1004D0000197D9F481E08093790210928202109200
:1004E000810280E392E040E752E020E030E0FC014E
:1004F000E20FF31F10822F5F3F4F28303105B9F70D
:1005000008964817590789F7089508951F920F9282
:100510000FB60F9211242F933F934F935F936F93D6
:100520007F938F939F93AF93BF93EF93FF9383E852
:1005300092E00E94D800FF91EF91BF91AF919F91FF
:100540008F917F916F915F914F913F912F910F907C
:100550000FBE0F901F9018951F920F920FB60F921B
:1005600011242F938F939F93EF93FF93E091930226
:10057000F09194028081E0919902F0919A0282FDBB
:1005800012C0908180919C028F5F8F7320919D0299
:10059000821751F0E0919C02F0E0ED57FD4F958FEE
:1005A00080939C0201C08081FF91EF919F918F9178
:1005B0002F910F900FBE0F901F9018951F93CF9300
:1005C000DF93282F30E0F901E458FF4F8491F901BF
:1005D000E057FF4FD491F901E255FF4FC491CC236E
:1005E000C1F0162F81110E947301EC2FF0E0EE0F85
:1005F000FF1FEC55FF4FA591B4919FB7F8941111CF
:1006000004C08C91D095D82302C0EC91DE2BDC93F2
:100610009FBFDF91CF911F910895CF93DF9390E01B
:10062000FC01E057FF4F2491FC01E255FF4F8491FC
:10063000882361F190E0880F991FFC01E859FF4F72
:10064000C591D491FC01EC55FF4FA591B491611176
:1006500009C09FB7F8948881209582238883EC9104
:100660002E230BC0623061F49FB7F8948881322F3B
:10067000309583238883EC912E2B2C939FBF06C04B
:100680008FB7F894E8812E2B28838FBFDF91CF910D
:1006900008951F920F920FB60F9211242F933F933C
:1006A0008F939F93AF93BF9380917002909171024B
:1006B000A0917202B09173023091220223E0230FC5
:1006C0002D3720F40196A11DB11D05C026E8230F8A
:1006D0000296A11DB11D2093220280937002909377
:1006E0007102A0937202B0937302809123029091E1
:1006F0002402A0912502B09126020196A11DB11DF0
:100700008093230290932402A0932502B0932602A3
:10071000BF91AF919F918F913F912F910F900FBEFD
:100720000F901F901895CF92DF92EF92FF920F9348
:100730001F93CF93DF936C017A018B01C0E0D0E06F
:10074000CE15DF0581F0D8016D918D01D601ED91B7
:10075000FC910190F081E02DC6010995892B11F0E3
:100760002196EECF7E01C701DF91CF911F910F91AE
:10077000FF90EF90DF90CF9008950E949C0CAF9275
:10078000BF92CF92DF92EF92FF920F931F93CF937E
:10079000DF9300D0CDB7DEB769834A83880F991FF6
:1007A0000091760310917703000F111FE0E2F3E050
:1007B0009F01205233402017310714F41192F8CFD3
:1007C0002981FC01E05EFC4F21838A81808360E007
:1007D000809174030E94DE021016110634F5015058
:1007E0001109F801E05EFC4FC080B0907203A09048
:1007F000700387E0E82EF12CD12CB6010E2C02C03C
:10080000759567950A94E2F761708A2D0E94DE0261
:1008100061E08B2D0E94DE0260E08B2D0E94DE02E3
:1008200081E0E81AF10848F7D7CF61E080917403BE
:100830000F900F90DF91CF911F910F91FF90EF904C
:10084000DF90CF90BF90AF900C94DE02EF92FF92BA
:100850000F931F93CF937C018C0183E0000F111F36
:100860008A95E1F7005D1C4FC1E0F80111928F01FC
:1008700040E06C2FC7010E94BF03CF5FC930A9F7CA
:10088000CF911F910F91FF90EF900895CF9380919A
:100890000401873021F08F3F09F0DBC004C0E2EC97
:1008A000F0E0C49175C087E080930401E2ECF0E0D1
:1008B000E491EF3F09F4CDC0E13009F446C048F1BE
:1008C000E23009F064C01092B0001092B100809143
:1008D000B00082608093B0008091B100816080930D
:1008E000B100E5EBF0E0E491F0E0EE0FFF1FEC5516
:1008F000FF4F8591949190937A0380937903E7E970
:10090000F0E0E491E093780361E087E00E940D035A
:1009100062C014BC15BC84B5826084BD85B581609D
:1009200085BDE5EBF0E0E491F0E0EE0FFF1FEC5544
:10093000FF4F85919491E7E9F0E0E491E0937C0327
:1009400061E087E00E940D032EC01092800010929B
:100950008100809181008860809381008091810076
:10096000816080938100E5EBF0E0E491F0E0EE0F30
:10097000FF1FEC55FF4F85919491E7E9F0E0E4917A
:10098000E0937B0361E087E00E940D032EC0CE2F31
:10099000C7FD5FC061E087E00E940D03CC2319F022
:1009A000C23009F518C085B5887F846085BD86E7AB
:1009B00087BD85E090E0A0E0B0E080938503909350
:1009C0008603A0938703B093880380916E008260B2
:1009D00080936E003EC08091B100887F85608093D7
:1009E000B1008DEE23C0C130F1F480918100887F89
:1009F00081608093810085E497E7909389008093DC
:100A0000880085E090E0A0E0B0E0809381039093BF
:100A10008203A0938303B093840380916F0082606C
:100A200080936F0016C0C230A1F485E48093B300B8
:100A300085E090E0A0E0B0E080937D0390937E039A
:100A4000A0937F03B09380038091700082608093B5
:100A50007000CF910895209176033091770312169C
:100A6000130604F588309105E8F468307105D0F478
:100A700020E830E002C0359527956A95E2F7FC0141
:100A8000E05EFC4F442319F03089232B03C02095EE
:100A900030892323208B61E0680F408980E090E05B
:100AA0000C94BF0308951F920F920FB60F9211245A
:100AB0002F933F934F935F936F937F938F939F9366
:100AC000AF93BF93EF93FF9380917D0390917E034B
:100AD000A0917F03B0918003892B8A2B8B2B59F136
:100AE00090917803E0917903F0917A0380818927CE
:100AF000808380917D0390917E03A0917F03B091CC
:100B00008003181619061A061B060CF03DC08091CA
:100B10007D0390917E03A0917F03B09180030197A4
:100B2000A109B10980937D0390937E03A0937F0375
:100B3000B093800329C080910401E2ECF0E0E491DD
:100B40009FEF90930401E130B9F098F0E230C9F4DE
:100B5000909170009D7F9093700091E09093B00011
:100B60009091B100987F94609093B1001092B3007F
:100B700008C010926E0005C090916F009D7F909309
:100B80006F0060E00E94DE02FF91EF91BF91AF9194
:100B90009F918F917F916F915F914F913F912F9195
:100BA0000F900FBE0F901F901895789484B58260B7
:100BB00084BD84B5816084BD85B5826085BD85B501
:100BC000816085BD80916E00816080936E0010927F
:100BD00081008091810082608093810080918100FA
:100BE000816080938100809180008160809380008B
:100BF0008091B10084608093B1008091B0008160E9
:100C00008093B00080917A00846080937A00809114
:100C10007A00826080937A0080917A00816080936C
:100C20007A0080917A00806880937A001092C100E7
:100C300060E089E00E940D0360E088E00E940D03FF
:100C400061E087E00E940D03809176039091770325
:100C50001816190634F441E06CE080E090E00E9440
:100C6000BF0380917603909177031816190634F428
:100C700048E06AE080E090E00E94BF038091760344
:100C8000909177031816190624F480E090E00E94F2
:100C900026040E942402E0919302F091940282E0E3
:100CA0008083E0918F02F09190021082E091910296
:100CB000F09192028FEC808310929B02E091970258
:100CC000F091980286E08083E0919502F09196027F
:100CD000808180618083E0919502F091960280810D
:100CE00088608083E0919502F0919602808180680F
:100CF0008083E0919502F091960280818F7D8083C0
:100D0000C1E078EC472E512CE2E0CE2ED12CE12C24
:100D1000F12CF0E56F2E712C80918202882341F036
:100D200080918202882309F4F4C200E010E03BC203
:100D3000809181028111F4CF80918002882309F48F
:100D400014C22FB7F8948091700290917102A09113
:100D50007202B09173022FBF90937F0280937E0244
:100D60008FB7F89400917002109171022091720275
:100D7000309173028FBF80917E0290917F02B20109
:100D80000E94820C892B89F48091020190910301C9
:100D90008536910534F08897909303018093020182
:100DA00004C0709203016092020180917A029091D6
:100DB0007B02A0917C02B0917D02B901A801481B81
:100DC000590B6A0B7B0B8091020190910301092E54
:100DD000000CAA0BBB0B84179507A607B70708F0F2
:100DE000D7C100937A0210937B0220937C02309348
:100DF0007D021091000180912A0290912B02113006
:100E000009F0E2C0109227024091010120912802CE
:100E100030912902442309F46AC021153105C1F437
:100E200063E0880F991F6A95E1F7FC01E85DFD4FCB
:100E3000808181110BC08181882329F011820E9459
:100E40004604109200011092010139C01082F7CFC0
:100E5000FC0153E0EE0FFF1F5A95E1F7E85DFD4FEF
:100E6000DF01A20FB31F4C91442331F01092000117
:100E70001C920E94460423C021503109DC0143E04A
:100E8000AA0FBB1F4A95E1F7A05DBD4FA20FB31F8C
:100E90008C918111D8CFE20FF31F8081882379F0E4
:100EA00010820E944604109200010E94C80BA70104
:100EB00096010E941F0C672B31F210930101809163
:100EC0002A0290912B02892B09F0FEC0E0912802A2
:100ED000F0912902E15DFD4F8085882329F0109271
:100EE0000001109201016EC010920001EDC0273088
:100EF0003105D9F423E0880F991F2A95E1F7FC0109
:100F0000E85DFD4F8781811108C08681811103C092
:100F1000C093010142C0168201C017820E9446049C
:100F2000109200011093010138C0FC0103E0EE0FA4
:100F3000FF1F0A95E1F7E85DFD4FDF01A20FB31F28
:100F40004C91442331F0109200011C920E944604FF
:100F500024C02F5F3F4FDC0113E0AA0FBB1F1A957F
:100F6000E1F7A05DBD4FA20FB31F8C918111D0CFCF
:100F7000E20FF31F8081882381F010820E944604D3
:100F8000109200010E94C80BA70196010E941F0C3D
:100F9000672B09F0BDCF1092010180912A02909138
:100FA0002B02892B09F090C0E0912802F0912902D0
:100FB000EF5CFD4F8085882309F496CF10920001E5
:100FC000C0930101108680C0079791F443E050E080
:100FD0006BE172E083E892E00E94930342E050E00C
:100FE0006FE172E083E892E00E949303C093820273
:100FF00040910101209128023091290280912A021A
:1010000090912B02FC01A3E0EE0FFF1FAA95E1F7E0
:10101000E85CFD4F442391F121153105A9F42081AD
:10102000222379F020912702211105C0069749F467
:10103000C093270202C0069721F4C09300010E94CA
:1010400046041092010140C0E20FF31F20812223C9
:1010500019F0069751F00FC0319720812223A1F19A
:10106000069791F1109201012DC080912702811104
:101070002BC0C0932702C093000124C02730310544
:10108000A9F42781222379F020912702211105C09C
:10109000069749F4C093270202C0069721F4C09333
:1010A00000010E944604C09301010EC0E20FF31F2D
:1010B00020812111CECF2181222331F0069721F00A
:1010C000C09301010E94460440910001509101012A
:1010D000209128023091290280912A0290912B02BE
:1010E000FC0173E0EE0FFF1F7A95E1F7E05DFD4F25
:1010F000E20FF31F10824130E1F4552319F0215023
:10110000310902C02F5F3F4F3093290220932802FC
:10111000019790932B0280932A0263E0880F991F16
:101120006A95E1F7805D9D4FFC01E20FF31F40835C
:101130002FC0552319F02150310902C02F5F3F4FB6
:101140003093290220932802019690932B028093DA
:101150002A0253E0880F991F5A95E1F7805D9D4F51
:10116000FC01E20FF31FC08313C089E00E949C01C1
:10117000019729F4C0938002C093010109C088E05F
:101180000E949C01019721F410920101C0938002FA
:1011900080912F0281118BC189E00E949C010197EF
:1011A00009F085C16DC1A12CB12C41E0B501C80188
:1011B0000E942B053FEFA31AB30A88E0A816B104DA
:1011C000A1F762E370E080E090E00E94EA010F5F27
:1011D0001F4F0830110539F700E010E0A12CB12CA9
:1011E00040E0B501C8010E942B052FEFA21AB20AF8
:1011F00038E0A316B104A1F762E370E080E090E06C
:101200000E94EA010F5F1F4F0830110539F7109255
:10121000800280917902811173C02FB7F894809178
:10122000700290917102A0917202B09173022FBF6F
:101230004091750250917602609177027091780228
:101240008C019D01041B150B260B370BB901A8015E
:101250004D3B52406105710508F44FC08093750203
:1012600090937602A0937702B093780280917402F3
:10127000811122C039E4832E31E0932EA12CB12CB0
:1012800000E010E0F401E00FF11F4081B801C5015A
:101290000E942B050F5F1F4F0830110599F72FEFA4
:1012A000A21AB20A38E0830E911C88E0A816B10495
:1012B00039F7C093740221C029E0822E21E0922EDA
:1012C000A12CB12C00E010E0F401E00FF11F4081EF
:1012D000B801C5010E942B050F5F1F4F0830110593
:1012E00099F70FEFA01AB00A18E0810E911C28E0C0
:1012F000A216B10439F7109274020E945C0289CFE1
:101300000E94240268EC70E080E090E00E94EA0114
:10131000B4C080918102882309F4AFC000E010E0DE
:10132000A12CB12C41E0B501C8010E942B053FEF73
:10133000A31AB30A88E0A816B104A1F762E370E02B
:1013400080E090E00E94EA010F5F1F4F0830110516
:1013500039F700E010E0A12CB12C40E0B501C80144
:101360000E942B052FEFA21AB20A38E0A316B1048F
:10137000A1F762E370E080E090E00E94EA010F5F75
:101380001F4F0830110539F71092800280917902C1
:10139000811173C02FB7F8948091700290917102FF
:1013A000A0917202B09173022FBF409175025091CB
:1013B000760260917702709178028C019D01041B86
:1013C000150B260B370BB901A8014D3B52406105A7
:1013D000710508F44FC08093750290937602A09334
:1013E0007702B093780280917402811122C099EC47
:1013F000892E91E0992EA12CB12C00E010E0F4018F
:10140000E00FF11F4081B801C5010E942B050F5F5D
:101410001F4F0830110599F72FEFA21AB20A38E0D2
:10142000830E911C88E0A816B10439F7C0937402AA
:1014300021C089E8882E81E0982EA12CB12C00E0F3
:1014400010E0F401E00FF11F4081B801C5010E94D6
:101450002B050F5F1F4F0830110599F70FEFA01AEA
:10146000B00A18E0810E911C28E0A216B10439F7E9
:10147000109274020E945C0289CF0E9469014CCCD8
:10148000C0932F0280912D0290912E0218161906FA
:10149000C4F4FC01E05DFD4F12AE019790932E0263
:1014A00080932D02FC01E05DFD4FC0AF0AC080912A
:1014B0002C02811106C088E00E949C01019709F46A
:1014C0004FC089E00E949C01892B11F410922F02D9
:1014D00088E00E949C01892B11F410922C026091EB
:1014E000810240E3842E42E0942EA40180E090E04B
:1014F00020E030E0FA01E20FF31F7081772329F03A
:1015000060938102A12CB12C28C02F5F3F4F28305F
:10151000310581F78330910509F461E00196485F58
:101520005F4F8430910521F7EBCFF401E00FF11FFD
:101530004081B801C5010E942B050F5F1F4F083085
:10154000110599F70FEFA01AB00A18E0810E911C4F
:1015500028E0A216B10409F4E3CB00E010E0E5CFE7
:10156000C0932C0280912D0290912E02853091051E
:101570000CF0A7CFFC01E05DFD4F10AE01969093FB
:101580002E0280932D02C3AF9CCFCF93DF93109296
:1015900086021092850288EE93E0A0E0B0E080938E
:1015A000870290938802A0938902B0938A028DE00B
:1015B00092E0909384028093830285EC90E0909374
:1015C000900280938F0284EC90E09093920280933B
:1015D000910280EC90E0909394028093930281ECCE
:1015E00090E0909396028093950282EC90E0909325
:1015F00098028093970286EC90E090939A028093F1
:10160000990210929C0210929D0210929E021092DA
:101610009F02CCE0D0E0D0937103C09370038BE0C5
:1016200090E090937303809372038AE090E090932C
:1016300075038093740381E090E090937703809327
:10164000760361E08CE00E940D0361E080917203FB
:101650000E940D0361E0809174030E940D0361E01C
:10166000809174030E94DE02D0937103C0937003D3
:10167000E0E3F3E0119283E0E037F807D9F7C0E048
:10168000D0E08091760390917703C817D90794F53D
:1016900040E06FE0CE010E94BF03D7FD0CC08091F7
:1016A000760390917703C817D9072CF447E06BE0D5
:1016B000CE010E94BF0340E069E0CE010E94BF035B
:1016C000D7FD16C08091760390917703C817D9078C
:1016D0001CF4CE010E94260480917603909177033A
:1016E000C817D9072CF440E06CE0CE010E94BF037C
:1016F0002196C7CFDF91CF9108958F929F92AF929D
:10170000BF92CF92DF92EF92FF92CF93DF93EC01E3
:10171000688179818A819B816115710581059105B7
:1017200021F464E279ED8BE597E02DE133EF41E0C0
:1017300050E00E941F0C49015A019B01AC01A7EA2D
:10174000B1E40E943E0C6B017C01ACEEB4EFA5014C
:1017500094010E944C0CDC01CB018C0D9D1DAE1D33
:10176000BF1DB7FF03C00197A109B04888839983C3
:10177000AA83BB83BC01CD019F77DF91CF91FF90FE
:10178000EF90DF90CF90BF90AF909F908F90089593
:101790008F929F92AF92BF92CF92DF92EF92FF9281
:1017A00060910501709106018091070190910801F7
:1017B000611571058105910521F464E279ED8BE5F0
:1017C00097E02DE133EF41E050E00E941F0C49010A
:1017D0005A019B01AC01A7EAB1E40E943E0C6B01E7
:1017E0007C01ACEEB4EFA50194010E944C0CDC012D
:1017F000CB018C0D9D1DAE1DBF1DB7FF03C0019712
:10180000A109B0488093050190930601A0930701B8
:10181000B0930801BC01CD019F77FF90EF90DF905E
:10182000CF90BF90AF909F908F90089560930501E7
:101830007093060180930701909308010895052E87
:1018400097FB1EF400940E94360C57FD07D00E94AF
:10185000510C07FC03D04EF40C94360C5095409577
:10186000309521953F4F4F4F5F4F0895909580954C
:10187000709561957F4F8F4F9F4F08950E94730C15
:10188000A59F900DB49F900DA49F800D911D1124D4
:101890000895B7FF0C943E0C0E943E0C821B930BE4
:1018A0000895A1E21A2EAA1BBB1BFD010DC0AA1FA1
:1018B000BB1FEE1FFF1FA217B307E407F50720F0B9
:1018C000A21BB30BE40BF50B661F771F881F991F34
:1018D0001A9469F760957095809590959B01AC017D
:1018E000BD01CF010895A29FB001B39FC001A39F86
:1018F000700D811D1124911DB29F700D811D112449
:10190000911D0895AA1BBB1B51E107C0AA1FBB1F55
:10191000A617B70710F0A61BB70B881F991F5A957B
:10192000A9F780959095BC01CD010895EE0FFF1F9A
:101930000590F491E02D099481E090E0F8940C94E6
:06194000A10CF894FFCF9A
:101946000101BC02FF0100000000000000000000D1
:101956000000000000000000000000000000000081
:10196600000001010000010100000100000000016B
:10197600000000000000000000000001010101005D
:10198600000001000000000100000000000000004F
:101996000000000000000000000000000000000041
:1019A600000001010000010100000000000000002D
:1019B600000000000000000000000001010101001D
:1019C600000001000000000100000000000000000F
:1019D60000000000000000000000000100000001FF
:1019E60000000001000001000000000100000001ED
:1019F60000000000000000000000010000000001DF
:101A060000000001010101000000000000000000CC
:101A160000000000000000000000000100000100BE
:101A260000000001000001000000000100000100AC
:101A3600000000000000000000000100000000019E
:101A460000000001010101000000000000FA0093FF
:101A56000391004701C200A000B400656E64000D4A
:021A66000A0074
:107E0000112484B714BE81FFF0D085E080938100F7
:107E100082E08093C00088E18093C10086E0809377
:107E2000C20080E18093C4008EE0C9D0259A86E02C
:107E300020E33CEF91E0309385002093840096BBD3
:107E4000B09BFECF1D9AA8958150A9F7CC24DD24C4
:107E500088248394B5E0AB2EA1E19A2EF3E0BF2EE7
:107E6000A2D0813461F49FD0082FAFD0023811F036
:107E7000013811F484E001C083E08DD089C08234E0
:107E800011F484E103C0853419F485E0A6D080C0E4
:107E9000853579F488D0E82EFF2485D0082F10E0AE
:107EA000102F00270E291F29000F111F8ED06801E7
:107EB0006FC0863521F484E090D080E0DECF843638
:107EC00009F040C070D06FD0082F6DD080E0C81688
:107ED00080E7D80618F4F601B7BEE895C0E0D1E017
:107EE00062D089930C17E1F7F0E0CF16F0E7DF06D8
:107EF00018F0F601B7BEE89568D007B600FCFDCFD4
:107F0000A601A0E0B1E02C9130E011968C91119780
:107F100090E0982F8827822B932B1296FA010C0160
:107F200087BEE89511244E5F5F4FF1E0A038BF0790
:107F300051F7F601A7BEE89507B600FCFDCF97BE46
:107F4000E89526C08437B1F42ED02DD0F82E2BD052
:107F50003CD0F601EF2C8F010F5F1F4F84911BD097
:107F6000EA94F801C1F70894C11CD11CFA94CF0C13
:107F7000D11C0EC0853739F428D08EE10CD085E9AC
:107F80000AD08FE07ACF813511F488E018D01DD067
:107F900080E101D065CF982F8091C00085FFFCCF94
:107FA0009093C60008958091C00087FFFCCF809118
:107FB000C00084FD01C0A8958091C6000895E0E648
:107FC000F0E098E1908380830895EDDF803219F02E
:107FD00088E0F5DFFFCF84E1DECF1F93182FE3DFCA
:107FE0001150E9F7F2DF1F91089580E0E8DFEE27F6
:047FF000FF270994CA
:027FFE00040479
:0400000300007E007B
:00000001FF